:020000040000FA
:020000000728CF
:040002000034003492
:08000800F00A0B1109002100B0
:100010007030990021009701971504309500F00188
:1000200020009501A0308B00003087002030860032
:1000300023008C0122001D159D17230024309E00F3
:1000400010309B0090309D003B00B401B301B10122
:10005000B201BF01FF30B500B600BE01C030BB0029
:1000600094019301910192019F01FF309500960048
:100070009E01C0309B00A401A301A101A201AF0118
:10008000FF30A500A600AE01C030AB002100F83063
:100090008C0572308400850106301C000301810844
:1000A000031903321A008103FA337F31922007309B
:1000B000F100723084000030850020006400911E41
:1000C000FD33230019081C0003191332013A0319E8
:1000D000083281038B20F10384208B20F10BFC3349
:1000E000E5337F31F103842017001A00F10BFB3355
:1000F000DD338B20F103842001081C008B201700C6
:100100001A00F10BF833D2332000911EFE33230086
:1001100019081C0008002000111EFE3323001700E0
:100120009A0008003B007208B4007308B30074081A
:100130009400750893007608A4007708A300BF1701
:060140009F17AF17080035
:020000040001F9
:02000E00E439D3
:02001000FC1DD5
:00000001FF
