:020000040000FA
:020000000528D1
:040002000034003492
:0800080009002100703099008D
:1000100021009701971500308700203086002300CB
:100020008C0122001D159D17230024309E001030E6
:100030009B0090309D003B00B101FF30B500B60041
:10004000BE01D030BB009101FF30950096009E01AB
:10005000D0309B00A101FF30A500A600AE01D0303A
:10006000AB002100F8308C05F00120006400911EE7
:10007000FD33230019081C0003190B32FF3A031942
:100080000F326120810361205A206120F00BFC3384
:10009000EC337F315A206820F00BFC339420E53399
:1000A00061205A2001081C0061206820F00BF93300
:1000B0009420DB332000911EFE33230019081C001E
:1000C00008002000111AFE33230017009A000800D0
:1000D0007008063A03191632063A053A0319123225
:1000E000053A043A03191432043A033A0319103258
:1000F000033A023A03191232023A013A03190E3254
:10010000013A01001700701CF1007018F2000B3268
:100110001700701CF3007018F40005321700701CF3
:10012000F5007018F60008003B007108B400720872
:10013000B30073089400740893007508A40076084F
:04014000A300080010
:020000040001F9
:02000E00F439C3
:02001000FC1DD5
:00000001FF
